:10000000375500001305059023260502232405001B
:10001000370101001301C1FF37450000130505201A
:10002000B745000013061004238AC5001306E00438
:100030002382C50237860000B70601009386C6FFFB
:100040001307000003A705001377070863140700D0
:100050006F10904CEF00400F371801001308088C08
:10006000232005011307100023A6E5001308B00A9A
:1000700023240501EF00000F23A4C500EF00C00FEB
:1000800023A6E5001308B00023240501EF00800D2E
:10009000371801001308888C23200501232405004C
:1000A000EF00400CEF00400A2324050037890000D0
:1000B000B70901009389C9FFEF00C009B7C8AD10A7
:1000C0009388F8EE63801203B7C8ADDE9388F8EE2C
:1000D00063841205B7C8FECA9388E8AB6388120B25
:1000E0006F008017EF00000713860200EF00800604
:1000F000938602006372D6166360261763EED914E6
:10010000EF0040052320560013064600E36AD6FEA2
:1001100023A4C5006FF05FFAEF00C003138602004E
:10012000EF004003938602006378D61263662613BD
:1001300063E4D912EF0000022320560013064600A4
:10014000E36CD6FE6FF05FF71348F0FF2322050142
:1001500067800000832C450093F81C00E38C08FEA8
:10016000232405008328450093F82800E38C08FE2B
:100170008322C5006780000037180000130808FAC2
:100180001308F8FFE31E08FE67800000EFF0DFFBB6
:100190001306100023A4C5001308900B23A6C50066
:1001A00023240501EFF01FFC1306000423A2C5025F
:1001B0001306100023A4C500B752000093820290DA
:1001C0001303400023A062001303000823A062046D
:1001D00023A2620493000000370101001301C1FF54
:1001E00093010000130200009302000013030000BB
:1001F00093030000130400009304000013050000A3
:10020000930500001306000093060000130700008A
:100210009307000013080000930800001309000072
:1002200093090000130A0000930A0000130B00005A
:10023000930B0000130C0000930C0000130D000042
:10024000930D0000130E0000930E0000130F00002A
:10025000930F00006F70D07AFFFFFFFFB787000099
:100260009387070803A707009306C7FF23A0D700BB
:10027000232EA7FE67800000B7870000938707083A
:1002800003A7070083A64700032507006376D7006E
:100290001307470023A0E70067800000B78700002E
:1002A0009387070803A707001315250083A64700B7
:1002B0003307A70023A0E70063F4E60023A0D700DC
:1002C00067800000B78700009387070803A78700AF
:1002D0009306C7FF23A4D700232EA7FE6780000044
:1002E0001306050013070000130510009307000014
:1002F00013080002B386F50083C606006396060065
:100300001305000067800000B308E60083C80800FA
:10031000638408026394D8021307170013170701B8
:10032000135707419386070093861600939706019B
:1003300093D707416FF01FFCE38606FD13071500F6
:1003400013150701135505413387F50003470700CF
:1003500093860700938717009397070193D7074168
:10036000E364E8FE130700006FF01FFC130101FFB8
:1003700023248100378400009307040803D7C700B3
:10038000B727000023261100232291009387F770DE
:100390001304040863F2E704B7E7FFFF9387078FAE
:1003A000B307F7009397070193D70701B72600001B
:1003B00093971700938646FEB387D700130717005D
:1003C00083D407002316E40093071000631CF50094
:1003D000231694006F0080018327040193162700E1
:1003E0006FF09FFDEFF05FE9E30405FE8320C1009D
:1003F0000324810083244100130101016780000070
:10040000378700009307070883A7870013070708AB
:1004100083A64700B306D50023A2D700635CA000E3
:1004200003A6870063CEC6009387C7002324F70086
:1004300067800000E30A05FE03A68700E356D6FEA8
:1004400083A707002316F700678000009307900337
:1004500063E8A700130505FD1375F50F678000001D
:100460009307000663E6A700130595FC6FF0DFFE17
:10047000130595FA6FF05FFE3747000013074740FA
:100480008347070093F74700E38C07FEB747000058
:1004900003C5C74067800000374700008327072057
:1004A00093F737FFB3E7A7002320F720678000000A
:1004B000B747000023A4A7201387472083470700DE
:1004C00093F74700E39C07FEB747000003A5C7204A
:1004D00067800000B747000003C747001377E70FA6
:1004E0002382E70067800000B747000003C747008A
:1004F000136717002382E70067800000130101FFE4
:1005000023261100B74700001307300C23A0E72073
:10051000EFF09FF8B7470000130730002382E72071
:1005200003C747021367E7002382E7028320C10065
:100530001301010167800000130101FF1305000092
:100540002326110023248100EFF05FFBEFF09FF8DA
:100550001305700DEFF0DFF513050000EFF05FF508
:1005600013040500EFF05FF88320C1001345F4FF8A
:10057000032481001375F50F135575001301010154
:1005800067800000130101FE13050000232E1100F7
:10059000EFF0DFF6B747000003C747021377E70F16
:1005A0002382E702B747000003C74701136717001C
:1005B000238AE700EFF05FF3EFF0DFF11305B00AF5
:1005C000EFF01FEFEFF05FF2B7A70000938707C4CB
:1005D0002326F1008327C1006392070413058000DE
:1005E000EFF09FEBEFF01FEF37852A3D1305650A0B
:1005F000EFF01FECEFF05FEFEFF01FF4E31E05FEEE
:10060000EFF05FED37852A3D1305A5F9EFF05FEABE
:100610008320C101130101026FF01FED8327C10088
:100620009387F7FF6FF0DFFA130101FF23248100A6
:100630002326110013040500EFF01FF0E31E05FE52
:1006400013058000EFF09FEBEFF0DFE83705008146
:100650003365A400EFF0DFE5032481008320C100AF
:10066000130101016FF05FE83747000013074740AF
:100670008347070093F70704E39C07FEB747000092
:100680002388A740678000006FF01FFE130101FD63
:1006900023229102B7840000938704082328610174
:1006A000039B6701232611022324810223202103B7
:1006B000232E3101232C4101232A510123267101CC
:1006C000239A070093840408630A0B001305A00013
:1006D000EFF09FFB1305E003EFF01FFB930AD00040
:1006E000930BA000130A8000EFF01FD983994401F7
:1006F00013090500139409011354040163040B0A40
:100700006314450363523003EFF01FF81305000232
:10071000EFF09FF713050A001304F4FFEFF0DFF684
:10072000239A84006FF05FFC13050900EFF0DFF5FA
:100730006304590713A7F93F6314790113070000F5
:1007400083A78401130414001314040113540441F7
:10075000B389370123802901B3878700239A840056
:1007600023800700E31207F88320C10203248102DB
:10077000239A040003290102832441028329C10131
:10078000032A8101832A4101032B0101832BC1002C
:1007900013010103678000001305A000EFF0DFEEF6
:1007A0006FF0DFF9E31855F96FF05FF9130101FFFE
:1007B00023248100378400001304040883174401B4
:1007C000232291008324840123261100138717001C
:1007D000B387F40003C50700231AE400631E050075
:1007E000EFF0DFEA83174401B384F40003C504008B
:1007F00013871700231AE4008320C100032481001B
:10080000832441001301010167800000130101FDF1
:100810002324810223261102232291022320210373
:10082000232E3101232C4101232A510113040500F9
:10083000635805001305D002EFF01FE33304804036
:100840009304000013094100930A9000130AC000AA
:100850009305A00013050400EF10C045B3099900EB
:10086000130505032380A9009305A00013050400C8
:1008700093090400EF10803F1304050093841400D3
:1008800063F43A01E39644FD9384F4FFB3079900BF
:1008900003C50700EFF05FDDE39804FE0324810247
:1008A0008320C10283244102032901028329C1015B
:1008B000032A8101832A4101130500021301010368
:1008C0006FF09FDC130101FF232481002326110018
:1008D000130405000345050013041400631C050000
:1008E000032481008320C1001305A000130101012E
:1008F0006FF09FD7EFF05FD7034504006FF0DFFD87
:10090000B787000037E70000938707081307C7DEA3
:1009100023A0E70023A2E70037970000130707DFB3
:10092000B7D600009386C65E23A8E70013870702A8
:1009300023A4D70023AEE700938647123787000031
:100940001307075F23ACD7009386875223A0E712D3
:1009500023A2D75223000700B7E600003727000084
:100960003725000023A606DE130707719306100043
:100970001305052A2382071223940756239BD700C9
:100980002396E7002395D75623960756239A070008
:100990006FF05FF3130101FF232481002326110070
:1009A00013040500930790001355450063F4A70056
:1009B0001305750013050503EFF01FCB1375F40045
:1009C0009307900063F4A7001305750003248100CA
:1009D0008320C10013050503130101016FF0DFC877
:1009E000130101FF23248100130405001355850022
:1009F00023261100EFF01FFA1375F40F0324810072
:100A00008320C100130101016FF0DFF8130101ED34
:100A10002322911223261112232481122320211331
:100A2000232E3111232C4111232A51112328611126
:100A30009304E0051305F5FF131505011355050192
:100A400063E8A410B7270000938787E613152500F5
:100A50003305F500832705006780070013040002B3
:100A6000EFF0DFD4E37EA4FE130980029309900225
:100A7000130400029304C00563062527630E952620
:100A80001304000037890000930900029304000456
:100A90009307090883A7475233878700130414007C
:100AA0002300A700B387870023800700EFF01FD043
:100AB00063F0A90AE31E94FC6F00800937840000EC
:100AC0009307040803A5475283A507128396C756C8
:100AD0001306000013070000130404083308E500A0
:100AE00003480800B307D7009397070193D707413E
:100AF000631C082063140600938706001387170001
:100B000013170701B387F500135707419306000237
:100B10002380D7002316E4563387E500230007001F
:100B2000EFF00FFC8327C401131505010357A456EA
:100B30001355050113151500B387A7002390E7008F
:100B40006F000001B7870000130710002394E75ED1
:100B50008320C1120324811283244112032901122C
:100B60008329C111032A8111832A4111032B011109
:100B70001301011367800000B787000083A70708EF
:100B800003A7470083A607003307D70023A2E70087
:100B9000032481128320C1128324411203290112EC
:100BA0008329C111032A8111832A4111032B0111C9
:100BB000130101136FF04FECB787000083A70708FC
:100BC00003A7470083A607003307D7406FF01FFC39
:100BD000B787000003A40708832544000325040009
:100BE000EF1000069357F5412322F4002320A400C0
:100BF0006FF01FF6B787000003A4070883244400A2
:100C000083250400138504002326B100EF1080051E
:100C10008325C1002322A40013850400EF10C00C1B
:100C20006FF0DFFCEFF04FE5032481128320C11247
:100C300083244112032901128329C111032A81113E
:100C4000832A4111032B0111130101136FF01FBC03
:100C5000B787000083A7070803A507006F000025DA
:100C6000B787000083A7070803A7070083A64700EC
:100C700023A2E70023A0D7006FF09FEDEFF0CFDFB6
:100C8000B787000083A7070803A707006352A702DE
:100C90001307100023A0E7006FF09FEBEFF0CFDD0C
:100CA000B787000083A7070803A70700E342E5FE14
:100CB00023A007006FF0DFE9EFF00FDCB78700003B
:100CC00083A7070803A70700E314A7FE6FF05FFCE4
:100CD000EFF08FDA1375F50FEFF0DFCB130500029D
:100CE0006F004047EFF09FACE31E35FFEFF01FAC05
:100CF000E37EA4FE6FF05FD8EFF05F99EFF01FABDB
:100D0000E37EA4FE6FF05FD713071700B387F500EB
:100D1000131707012380070113570701130610005B
:100D20006FF0DFDBB787000003A707088327070002
:100D3000E3D007E2B307F0406F008047B7870000B9
:100D4000938707080397A75603A407019306170084
:100D5000131727002395D7563304E400EFF0CFD1C3
:100D60006FF0DFE8B78700009387070883A60700C6
:100D700083A7070103A7060013172700B387E7001F
:100D800083A7070023A0F6006FF09FDCEFF0CFCE23
:100D900013040500EFF04FCEB787000083A70709C3
:100DA00013142400B387870023A0A7006FF05FDA35
:100DB000B787000083A7070803A70700E30A07EC2B
:100DC0006FF01FEF37240000130444FE1305841254
:100DD000EFF05FAF13058429EFF0DFAEB7870000B7
:100DE00003A5071A032481128320C1128324411210
:100DF000032901128329C111032A8111832A411178
:100E0000032B0111130101136FF0DFAB1305000079
:100E1000032481128320C112832441120329011269
:100E20008329C111032A8111832A4111032B011146
:100E3000130101136FF08FD3B787000003D5C708E4
:100E4000032481128320C112832441120329011239
:100E50008329C111032A8111832A4111032B011116
:100E6000130101136FF00FC6378400001304040848
:100E7000832484009387440003A904002324F400FE
:100E8000EFF08FBFE31605CC232494002316240132
:100E90006FF01FCCB78700009387070803A54700B2
:100EA00083A707003305F54013552540032481121D
:100EB0008320C11283244112032901128329C11105
:100EC000032A8111832A4111032B011113010113FC
:100ED0006FF0CFB8EFF04FBA1304050013550501BA
:100EE000EFF01FB01315040113550501EFF05FAFCC
:100EF0006FF0DFDEB787000083A4475A1306900027
:100F000083C60400938736FD93B717003387F40038
:100F100003470700130707FD1377F70F6362E60A1D
:100F200013070003639AE60803C61400130780073B
:100F30006314E60813050000130920006F00000287
:100F4000131445001309190013850700EFF00FD0A3
:100F5000131909013365850013590901B387240169
:100F600083C70700E39E07FC13041000EFF00FAFE8
:100F7000130504006FF09FF3131725003307A70034
:100F800013171700938717003307C70093970701BC
:100F9000130507FD93D707013387F40003460700C5
:100FA000E31C06FC9307D00213041000E390F6FC48
:100FB0003305A0406FF09FFB130500006FF0DFFDCD
:100FC00013050000130400006FF05FFA1305000022
:100FD0006FF0DFED130510006FF09FE3EFF0CFA986
:100FE00013140501B7570000135404419387F7E128
:100FF00063DE8700B7B7FFFF9387071E3305F50051
:1010000013150501135505416FF0DFA2B7840000E9
:10101000B7270000938404089387F77003D5C400B2
:1010200063D88702EFF00FAA37E7FFFF1307078F98
:10103000B72700003304E400131414009387472BF0
:10104000B387870083D707002396F4006FF05FB063
:10105000EFF04FA783A7C401131414006FF05FFED5
:10106000378400001304040803294452B724000005
:10107000938444FE9385841213050900EFF04FA674
:1010800063020502B7570000938707E23305F500B6
:101090001315050113550541EFF04F9C1305100082
:1010A0006FF0DFE09385842913050900EFF04FA36B
:1010B00063080500B7270000938707716FF01FFDD5
:1010C0008325041213050900EFF08FA1E30005DE6C
:1010D0006FF09FFCB78600009387060803D7C70010
:1010E000B72700009387F7709386060863F8E70236
:1010F000B7E7FFFF9387078FB307F7003726000096
:1011000093971700130646FEB307F60003950700F2
:10111000130717002396E6006FF05FD983A7060137
:1011200013162700B387C70003A507006FF05FFE03
:10113000B787000083A7070803A547006FF01FD7F4
:10114000B787000003A5475A6FF0DFC9EFF0CF92D1
:101150001375F50F032481128320C11283244112D9
:10116000032901128329C111032A8111832A411104
:10117000032B0111130101136FF00FD1B78700008A
:101180009387070803A787008326070013074700F4
:1011900023A4E7002396D7006FF09F9BB78700003A
:1011A00003A707088327070093F7C7FF83A7070054
:1011B0002320F7006FF0DF99EFF00F8C1304050088
:1011C0001374C4FFEFF04F8B6FF05FA2B78700007E
:1011D0000395A75E6FF09FCDEFF00F8A1304050013
:1011E000EFF08F89B787000083D4C708EFF08F8DA9
:1011F00013050400EFF00F8D138504006FF05FC43A
:1012000013051000032481128320C112832441128C
:10121000032901128329C111032A8111832A411153
:10122000032B0111130101136FF08F9DEFF0CF8499
:1012300013150501135505416FF0DFFCB78700005A
:1012400083A787086FF05FEFB787000083A7870841
:1012500003A507016FF09FC5B787000083A7870824
:1012600003A5C7016FF09FC4B787000003A7070855
:101270008327070093C7F7FF6FF09FF3B78700003E
:1012800083A7070803A7470083A607003347D700B3
:101290006FF0DF8FB787000083A7070803A7470019
:1012A00083A607003377D7006FF05F8EB787000003
:1012B00083A7070803A7470083A607003367D70063
:1012C0006FF0DF8C37840000EFE01FFB130404088D
:1012D000832704009304050083A5470003A50700A6
:1012E000EF00101693850400EF00D017930405005B
:1012F000EFE09FF88327040023A097006FF05F853D
:10130000EFF08F976FF09FBA1305A0006FF09FE486
:10131000B787000003A707088327070093971700E4
:101320006FF01FE9B787000003A7070883270700AE
:1013300093D717406FF0DFE7B787000003A40708D3
:1013400083270400E78007006FF05F8AB7870000FB
:1013500003A407088327040003254400E78007004F
:101360002322A4006FF0DF82B787000003A40708E0
:10137000832704008325440003258400E7800700B9
:101380002324A40013052000032481128320C1120A
:1013900083244112032901128329C111032A8111D7
:1013A000832A4111032B0111130101136FE01FEF79
:1013B000B787000003A4070883270400032644001E
:1013C000832584000325C400E78007002326A400AA
:1013D000130530006FF05FFBB787000003A4070818
:1013E0008327040083264400032684008325C40049
:1013F00003250401E78007002328A400130540000B
:101400006FF09FF8EFE05FE76FF01FF8B78700001D
:1014100083A6070803D70600935787001317870092
:10142000B3E7E7009397070193D707016FF09F9504
:10143000EFE09FE413040500EFE01FE4931724009E
:1014400003A707003307A7006FF0DF84EFE0DFE2B8
:10145000B787000083A70708131505011355054139
:10146000131525003385A70003270500E3F4A782A1
:101470008326C5FF1305C5FF2322D5006FF01FFF8C
:10148000EFE09FDFB787000083A70708131525004B
:10149000B387A7006FF04FFC3784000013040408E3
:1014A0008327040003A5070083A44700EFE01FDBA8
:1014B0008327040003A7070023A2970023A4E700C3
:1014C0006FF00FE9EFE05FDBB787000083A7070845
:1014D00003A70700635EA7E66FF01F8DEFE0DFD97B
:1014E000B787000083A7070803A707006352E5E654
:1014F0006FF09F8BB787000013870708032447000E
:101500009384070883A704006364F4E403250400BC
:101510001304C4FFEFF08FAF6FF0DFFEB78700005A
:1015200013870708032447009384070883A7040050
:101530006360F4E2032904001304C4FF1355090196
:10154000EFF00FCA1315090113550501EFF04FC94C
:1015500013050002EFF04F936FF05FFDB7870000B7
:1015600003A70708832707006FF0CFFCEFE0DFD069
:10157000B7870000239BA7086FF08FDDB7870000B7
:1015800083A7870923800700032481128320C112C7
:1015900083244112032901128329C111032A8111D5
:1015A000832A4111032B0111130101136FF04FB571
:1015B000EFE09FCC931705013757000093D7074101
:1015C0001307F7E16356F702B7B7FFFF9387071ECC
:1015D0003305F500931705013724000093D7074121
:1015E0001304C41013071000930600026F00400597
:1015F000372700001307F7706352F702B7E7FFFFC2
:101600009387078F3305F5009317050137240000F2
:1016100093D707411304C4276FF0DFFC378700001E
:101620000324071A6FF01FFC034604001304140080
:10163000E3ECC6FE13071700131707011357074102
:10164000E344F7FE8347040093040002639C070011
:101650001305F003EFF04F836FF04FE8130414000D
:10166000EFF08F8203450400E3EAA4FE6FF00FE77A
:101670003787000013070708832607003726000076
:101680001306F67083A706006356F60023A0060033
:101690006FF00FCC0327C70193971700B307F7002C
:1016A000839707006FF00FEEB75700002394079061
:1016B0006FE01F956FF0CFC9EFE01FBC130405006A
:1016C00013148400EFE05FBBB747000013740430CD
:1016D00023A0876023A40760138707009307F0FF08
:1016E0002302F760930600202320D770232407707D
:1016F0002302F7701375F50F9307200063E0A70826
:10170000B7270000131715009387C72BB387E7008F
:1017100003D60700B747000003A707701367070445
:1017200023A0E7703747000013078770832707005F
:10173000E38E07FEB747000083A607609387076024
:1017400093E6060423A0D7002320070037470000B4
:101750001307877083260700E3EEC6FE23A0070069
:10176000B747000023A007703787000083A7876072
:1017700003270708B397A7006FF09FA33716000051
:10178000130530006FF01FF9EFE01FAF930905005C
:10179000B7840000EFE05FAE1304050093840408F3
:1017A000EFE09FAD83C7E456130905006398070077
:1017B000EFE05FDD930710002387F456EFE0DFD7FB
:1017C000E31E05FEEFE09FD3EFE0DFD01305B0008E
:1017D000EFE01FCE13058000EFE01FCC13958900CA
:1017E000EFE01FCD13050000EFE01FCB63160402EE
:1017F000032481128320C112832441120329011280
:101800008329C111032A8111832A4111032B01115C
:10181000130101136FE05FCD13050000EFE05FC916
:101820001375F50F63080900EFE01FE61304F4FFDA
:101830006FF0DFFBEFF00F966FF05FFFEFE0DFA3DD
:10184000378400001309050013040408EFE0DFA249
:101850008347E456130A050063980700EFE09FD220
:10186000930710002307F45613054002EFE0DFE171
:10187000B75700001307F0FF2398E7909304000088
:10188000930A01019389C790130B001063000A08A3
:10189000EFE09FBE9307050033879A002300F7000F
:1018A0002380F90093841400E39264FFB75700008B
:1018B00003D50791EFF0CF92EFE01FBC930790059F
:1018C0006318F5A8EFE05FC7E31E05FE130580006F
:1018D000EFE0DFC2EFE01FC0370500823365A900EB
:1018E000EFE01FBD13050000EFE01FBB1304000075
:1018F00093040010B3878A0003C507001304140083
:10190000EFE01FBBE31894FE6FF09FEEEFE0DFB651
:10191000EFE0DFB313144500EFE01FB61374F40FCC
:10192000EFE0DFB2B367A40093F7F70F6FF0DFF6D5
:101930003784000013040408EFE01F94832404009C
:101940001307B0079307000083A604006394E60220
:101950008347E456639C07002326A100EFE09FC263
:101960000325C100930710002307F456EFE0DFCBF7
:101970009307100023A0F4006FF08F9D37890000BB
:10198000EFE09F8F1309090813040500EFE0DF8ED5
:10199000832909009307B0079304050083A6090073
:1019A00013070000639AF602B367A40093F7F70FDA
:1019B00063940702630205028347E95663980700B0
:1019C000EFE05FBC930710002307F956B3049400BF
:1019D000636894001307100023A0E9006FF04F978D
:1019E00013050400EFE05FC4130404106FF05FFE02
:1019F000EFE09F8813040500EFE01F889377C4FF92
:101A0000130710003317A70003A507003365E5008F
:101A10006FF08FB9EFE05F8613040500EFE0DF851C
:101A20009377C4FF83A60700130710003317A7009E
:101A30001347F7FF33F7E6006FF0CFA5EFE0DF8342
:101A400093040500EFE05F8313040500EFE0DF82FD
:101A500093F7C4FF03A70700334487003374A4003F
:101A60003344E40023A087006FF08F8EEFE0DF8027
:101A7000B787000003A7070883270700638A07F2D8
:101A8000B337A0006FF0CFF2EFE00FFFB787000091
:101A900083A7070803A707003365E5003335A000D7
:101AA0006FF08FB0B787000083A6070883A70600F2
:101AB00013D7070193970701B367F7006FF08FAC57
:101AC000EFE08FFBB787000003A707088327070015
:101AD0006FF05FCAEFE04FFAB787000003A707086F
:101AE00083270700B3D7A7006FF08FECEFE0CFF8A4
:101AF00093090500EFE04FF813090500EFE0CFF779
:101B0000B75700001307F0FF930405002398E790F0
:101B100013040000138AC79063148902375400002D
:101B20000355049113040491638004081375F50FA1
:101B3000EFE09FB503550400135585006FF08FE16A
:101B4000B38A890003C50A00638C0400EFE0DFB3A9
:101B500083C70A00130414002300FA006FF0DFFBB0
:101B6000EFE05FE36FF0DFFEEFE00FF193040500BD
:101B7000EFE08FF013090500EFE00FF09309050087
:101B800013054002EFE05FB0B75700001307F0FF06
:101B9000330999002398E790138AC79063EA2403D6
:101BA000B757000003D50791032481128320C11287
:101BB00083244112032901128329C111032A8111AF
:101BC000832A4111032B0111130101136FE05FE11F
:101BD000638C0900EFE05F8A2380A4002300AA0041
:101BE000938414006FF09FFBEFE01F89EFE01F86E6
:101BF00013144500EFE05F88EFE05F851374F40F86
:101C00003364A4001375F40F6FF01FFDEFE0CFE60F
:101C100013040500EFE04FE693040500EFE0CFE585
:101C2000930704001375F50FB384840063E49700F1
:101C30006FE01FF22380A700938717006FF01FFF4C
:101C4000130605001305000093F6150063840600D3
:101C50003305C50093D5150013161600E39605FE4F
:101C6000678000006340050663C60506138605000D
:101C7000930505001305F0FF630C060293061000A0
:101C8000637AB6006358C0001316160093961600C8
:101C9000E36AB6FE1305000063E6C500B385C540E0
:101CA0003365D50093D6160013561600E39606FE4C
:101CB0006780000093820000EFF05FFB1385050052
:101CC000678002003305A0406348B000B305B04010
:101CD0006FF0DFF9B305B04093820000EFF01FF919
:101CE0003305A040678002009382000063CA0500AC
:101CF000634C0500EFF09FF7138505006780020035
:101D0000B305B040E35805FE3305A040EFF01FF6E1
:101D10003305B04067800200130101FD23229102C8
:101D200023202103232E3101232A510123261102CE
:101D300023248102232C41012328610123267101E0
:101D4000B7570000239007902382079023940790B1
:101D5000B747000003C74712B724000037590000F7
:101D6000136707012382E71203C74712B7B9FFFFC2
:101D7000B78A0000136707022382E712B747000003
:101D80001307C0002394E740130700022380E740B5
:101D9000130730002382E74003C7C7409387C7403B
:101DA00083C707009384F4701309F9E19389091E2E
:101DB000EFE01FB593870A0837EAFFFF238707562E
:101DC000938B0A08372B0000130A0A8F83978B56D0
:101DD0006382070283A70B00039707009307A00203
:101DE000E318F7FC3725000013058528EFE09FADC9
:101DF0006FF01FFC03D5CB0063F4A404B3074501C7
:101E00009397070193D7070113074BFE939717008A
:101E1000B387E7001305150003D407001315050168
:101E2000135505012396AB00637289023305340113
:101E30001315050113550541EFE05FBD6FF01FF964
:101E400083A70B01131725006FF09FFCEFE08FC7EE
:101E500083A7CB0113141400B387870083D707002F
:101E60002396FB006FF09FF6440B0000780B0000F8
:101E7000B80B0000D00B0000F40B0000240C000095
:101E8000500C0000900B0000600C00007C0C000067
:101E90009C0C0000B80C0000D00C00005C0A000094
:101EA000BC0A0000240D00003C0D0000640D000081
:101EB0008C0D0000B00D0000C40D00000C0E0000E1
:101EC000500B0000500B0000380E0000680E0000A0
:101ED000940E0000D40E0000500B0000F40E000021
:101EE000CC0F0000D40F0000DC0F000060100000D9
:101EF000D4100000301100009C10000040110000C0
:101F00004C1100007C1100009C110000B811000071
:101F1000CC110000D8110000001200002C120000AB
:101F20003C12000048120000581200006812000025
:101F30007C12000094120000AC120000C4120000D9
:101F40000013000008130000101300002413000009
:101F5000381300004C13000068130000B013000099
:101F6000D8130000041400000C140000301400000A
:101F70004C1400008014000098140000C4140000E9
:101F8000DC140000F41400001C1500005C150000B7
:101F90006C1500007C150000B015000070160000E4
:101FA000A8160000B8160000881700003C180000B2
:101FB000301900007C190000F0190000141A00000C
:101FC0003C1A00006C1A0000881A0000A41A0000D5
:101FD000C01A0000D41A0000EC1A0000681B0000B0
:101FE0000C1C0000394E2E4E3E4E364E18273F4EEA
:101FF000404E2E27284E424E364E2A27434E5D0035
:10200000444E2C4E364E2627284E454E404E2E2707
:10201000414E3F4E404E2E27434E3F00474E3F4ECF
:102020003A4E484E434E55552E4E2F4E394E2E4E5B
:102030003E4E364E3F27434E434E314E314E3F4E7D
:102040003A4E284E424E344E364E4A27434E3F00BB
:10205000474E464E3F4E3A4E434E364E444E2C4E21
:10206000364E5627314E4B4E274E314E3F4E3A4E4E
:10207000434E384E444E2C4E364E6827434E404E0B
:10208000314E4B4E294E314E294E4B4E294E334E3A
:102090003F4E3A4E434E374E444E2C4E364E7427EA
:1020A000284E4B4E294E334E3F4E3A4E434E11274B
:1020B000444E2C4E364E7D2711273F4E3A4E434E0E
:1020C000484E444E2C4E344E364E8727314E3F4EAE
:1020D0003A4E314E434E55552C4E344E364E942783
:1020E000434E3F00474E434E7300474E454E3A4ED7
:1020F000484E4B4E3F4E314E2E4E2F4E434E434E8A
:10210000314E314E434E484E314E484E6279652035
:102110002B202D202A202F25202E2064757020644E
:10212000726F702073776170203C203E203D3D200F
:1021300068622E2067772064666E20616273202CAF
:10214000207040207021206E6F74206C69737420A1
:102150006966207468656E20656C736520626567CA
:10216000696E20756E74696C20646570746820688F
:102170002E205D206E756D20707573683020676F3E
:10218000746F2065786563206C7520707573686E58
:10219000206F766572207075736831207077726475
:1021A00020656D6974203B20402021206840206418
:1021B0006F206C6F6F70202B6C6F6F702069206ABE
:1021C000206B207E205E2026207C202A2F206B651D
:1021D00079206372202A32202F322063616C6C30A8
:1021E0002063616C6C312063616C6C322063616CC4
:1021F0006C332063616C6C34206E64726F7020737A
:10220000777062202B2120726F6C6C207069636B79
:10221000207475636B206D6178206D696E20732E5C
:102220002073682E206E6567206563686F20696E75
:102230006974206F3277206F32702072737420635C
:102240006C6B2066722066772066652066656D205F
:1022500073626920636269206D61736B20616E64D3
:10226000206F7220737770687720736C6C207372A4
:102270006C206D72206D77206D7320005B203A20FA
:1022800076617220000000006D7973686B696E3AA8
:102290000A2D2053656D696E6172696F0A00000036
:1022A0006D7973686B696E2072763474682D726F05
:1022B0006D21000000001027302797270080004084
:0422C00000200000FA
:1022C4004D7973686B696E204E6F76656D626572C9
:1022D4002C20323032350A54686520666972737472
:1022E40020696E7374616E74696174696F6E206FB6
:1022F4006620566573746152562E0A446573696785
:102304006E6564206279204D6178782053656D692B
:102314006E6172696F20666561747572696E67209B
:102324004543532062792053657468204D63526F8E
:10233400626572742E0A5368652068657273656CF1
:1023440066206973206D7920626573742061706FF3
:102354006C6F677920666F7220616C6C206865729F
:102364002061636375736174696F6E732E200A0A4A
:10237400576861742062656175746966756C207450
:1023840068696E6773207468657265206172652080
:10239400617420657665727920737465702C20658C
:1023A40076656E20746865206D6F737420686F7035
:1023B400656C657373206D616E206D757374206632
:1023C40065656C20736F2062656175746966756CF0
:0423D40021200A00BA
:00000001FF
